:100000006F00407D1300000013000000130000008B
:100010001300000013000000130000001300000094
:100020001300000013000000130000001300000084
:08003000130000007300100032
:100038000000000000000000680700006A070000D8
:10004800000000006C070000000000000000000035
:100058006E070000700700000000000000000000AC
:10006800900100000000000074070000000000007C
:1000780076070000780700007A0700007C07000078
:100088007E07000080070000820700008407000048
:1000980086070000880700008A0700008C07000018
:1000A8008E070000900700009207000094070000E8
:1000B80096070000980700009A0700009C070000B8
:1000C800B2010000A0070000A2070000A40700007A
:1000D800A6070000A8070000AA070000AC07000058
:1000E800AE070000B0070000B2070000B407000028
:1000F800B6070000B8070000BA070000BC070000F8
:10010800BE070000C0070000C2070000C4070000C7
:10011800C6070000C8070000FE010000CC07000069
:10012800CE070000D0070000D20700000000000042
:080138000000000000000000BF
:100140002A8311C62300B3007D16050365FE828055
:100150002A8309CA83830500230073007D160503E3
:1001600085056DFA8280B7F700E023A0070023A27F
:100170000700814694C70147D8C788CB8146D4CBB6
:100180003D4798C3B7E700E0056723A0E7108280EA
:1001900041113AC63EC4B7F700E023A2070083A787
:1001A0008184850723A4F1843247A247410173006B
:1001B0002030397106DE16DC1ADA1ED82AD62ED483
:1001C00032D236D03ACE3ECC42CA46C872C676C487
:1001D0007AC27EC0EF10B041F250E2525253C25385
:1001E0003255A255125682567247E2475248C248CB
:1001F000324EA24E124F824F21617300203039716E
:100200002AD63705040006DE16DC1ADA1ED82ED4EC
:1002100032D236D03ACE3ECC42CA46C872C676C436
:100220007AC27EC0EF00806FF250E2525253C25346
:100230003255A255125682567247E2475248C2487A
:10024000324EA24E124F824F216173002030411175
:1002500022C426C22A84AE841145854506C6EF0015
:100260003018B7670040938707C4984321C8C16618
:10027000F516758F98C3B717014093870780D84349
:10028000B716F0FFFD16758FD8C3D847F976938659
:10029000F67F758FD8C7D843B7460400558FD8C3AB
:1002A000B7470240938707809843B1C01367270080
:1002B000B240224498C392444101828013672700D0
:1002C0004207418398C3B717014093870780D843FB
:1002D000B716F0FFFD16758FD8C3D847F976938609
:1002E000F67F758FD8C7D843B736030045BF759BD7
:1002F000C1B785660147938606FA83A78180B3D785
:10030000D702B387A7026363F70082800100050765
:10031000EDB78147254863C3C70082801357C501E5
:10032000930677036364E800930607032380D500F0
:10033000A3800500120585078905F1BF797109457C
:1003400006D622D426D2EF00007B854537058000F3
:10035000EF00900AB7F7FF1F03A4077F03A5877E6E
:10036000B705002083A4C77E2295214693852500EA
:100370004D37B7050020114693852501338584004C
:10038000493FEF10E0309307401205442800231442
:10039000F10022C623050100612D37050400BD2BA5
:1003A000B70704003EC8C1473305F1003ECC22CE5A
:1003B00002CA21239307A00328002314F1008D2DE6
:1003C000B2502254925445618280411106C6EF30EA
:1003D000007D2928A53703A581809307803E3355EA
:1003E000F5025133EF10D03F452AEDBF1D71854511
:1003F000114586CEA2CCA6CACAC8EF00607E85454C
:1004000037050200EF00407F85452E85EF00C07B59
:1004100091472314F10037150140E1473EC82C00F5
:100420008D47130505803EC60123A14737150140BE
:100430002314F1002C0093078004130505803EC8A7
:10044000E521C147930400083ED6374400403705F4
:1004500002409387418B1304444009694C10269550
:100460003ED422D226DCCAC402DA02DE82C002D81E
:1004700082C282C6FD263705024026958545312970
:100480009387418F370502403ED44C1093070002FA
:100490001305C506BEC222D226DC26D8CAC402D69F
:1004A00002DA02DE82C082C66D2E37050240854523
:1004B0001305C506DD26F167938707203745004001
:1004C0003ECA4C08B7070C00130505403ECE02CCCF
:1004D00023100102352F3745004005469305000CD7
:1004E00013050540EF00F000374500408545130532
:1004F0000540EF00807EF6406644D64446492561BB
:100500008280011106CE8347550023120100054762
:100510006389E7060947638EE706231401008347D2
:10052000450085460D676387D700F91793B7170015
:100530001397D700834715002313E10003470500F5
:10054000A20723160100D98F0347250042075D8FBC
:1005500083473500E207D98F3EC0B1472315F1002C
:10056000996773900780374500408A8513050540D9
:10057000452599679387870873900780F240056146
:100580008280930700602314F10085672312F10035
:1005900079B793070040C5BF41110D4526C206C675
:1005A00022C44AC0EF10005BB7140020930700027A
:1005B000938444246310F50A370502401305C506E9
:1005C000CD2C83A70185130700083304A740330609
:1005D000F4409306F00363ECC6026388870003A629
:1005E000818483A6C1846314D60C03D7A4849307A3
:1005F00000046311F7060146814513053008239571
:100600000484EF1080760D45EF100056A1A06373AF
:10061000F4003A843307F4409306000463F4E600E0
:100620003384D7003307F4402395E48403D6A484AD
:100630009385418FBE9513053008EF1000730D456B
:10064000EF10805203A781841374F40723A88184D8
:1006500023A6E18483D7C488B1CF370502401305B0
:100660000508812C21E903D6C4889385011C1385D4
:10067000418BF93C37050240814513050508312CB3
:1006800083D5C48837050240130505080D243705B6
:10069000024013050508854509242244B240024959
:1006A0002396048892440D4541016F10A04FE37BCF
:1006B000F4F685B7B2402244924402494101828057
:1006C000B71702409843B706FFF81367170098C39F
:1006D000D843758FD8C39843B706F7FEFD16758FBC
:1006E00098C39843B706FCFFFD16758F98C3D8438F
:1006F000B70681FFFD16758FD8C337079F0098C7CF
:100700003747024013070780144393E6060114C3DA
:10071000D843B706C1FFFD16D8C3D843D8C3D843C2
:1007200013670740D8C3D843758FD8C3D843B706DB
:100730003C00558FD8C39843B7060001558F98C326
:10074000984393166700E3DD06FED843B7160240D0
:10075000719BD8C3D84313672700D8C32147DC4215
:10076000B18BE39EE7FE828001A001A001A001A061
:1007700001A001A001A001A001A001A001A001A071
:1007800001A001A001A001A001A001A001A001A061
:1007900001A001A001A001A001A001A001A001A051
:1007A00001A001A001A001A001A001A001A001A041
:1007B00001A001A001A001A001A001A001A001A031
:1007C00001A001A001A001A001A001A001A001A021
:1007D00001A001A0970100209381C10F17510020B3
:1007E00013014182176500001305056A9705002073
:1007F00093854581170600201306469263FAC500CB
:100800008322050023A0550011059105E3EAC5FEEA
:100810001385818497050020938505756377B5005E
:10082000232005001105E36DB5FEFD42739002BC67
:100830008D42739042809302800873A0023097F239
:10084000FFFF9382A27F93E2320073905230EFF069
:100850003FE797020000938282B7739012347300CF
:1008600020301841E177BD0794517D8F9C45D58F8D
:100870009449D58FD449D58F944DD58FD44DD58FEC
:10088000D451D58F9455D58FD98F1CC1DC455CC10F
:100890009C411CC5DC415CC582801C4189C593E735
:1008A00017001CC1828041677917F98FDDBF4CC1E9
:1008B0008280484142054181828058410C41504527
:1008C000B7070140938707403E9793C6F5FF39C2AB
:1008D0009043758E90C3D043F18ED4C31443CD8E14
:1008E00014C3184190479346F7FF758E90C7D047C1
:1008F000F18ED4C7144541466399C6009447D98EFA
:1009000094C7D447558FD8C78280B6979443558FE4
:1009100098C382801C43F58F1CC38280B7070140B7
:1009200093870740C8CB82809C4513F7070113F8D3
:10093000F70001C7D8413368E80037270240145B4D
:100940003717014013D686013D8A5DEA0546238AA2
:10095000C1846317E50003D7050035832390E500C4
:1009600083D5050013F7F50F39C318418146854E2D
:100970003D4F930F800293028004214E3396DE0098
:10098000B3F8C500631116039398260033131F01B3
:100990001343F3FF3377E300B318180133E7E8009C
:1009A0006396F70750C98506E39AC6FD18C1130779
:1009B000F00F6376B70454410146854E3D4F930FC7
:1009C000800293028004214E130786003397EE00C5
:1009D000B3F8E500631117039318260033131F01C2
:1009E0001343F3FFB376D300B3181801B3E6D8006E
:1009F0006392F70358C90506E318C6FD54C1828007
:100A0000E310E5F603C7418521DFB1B7E39D57F851
:100A100010C951BFE39157FE18C9F1BFB717014084
:100A20006316F50083C7418591C3B5810CC98280E7
:100A300083A681850347050091EA83462500B7E731
:100A400000E09206BA972380D74025A083A5818530
:100A50000546639FC5028347250003461500B7E698
:100A600000E092076314B60093E707F8BA96238074
:100A7000F6405041854693575700B396E60037E756
:100A800000E03DC6938707048A073E9714C382801F
:100A900083A5818589466395D502834615008347E2
:100AA00025006368D6008A06B6979207B7E600E08D
:100AB00075BFF9168A06B697920793E707F8FDB750
:100AC00003A681858D46631DD600834615008347A6
:100AD00025006364D6008606C1BFF1168606E1BF15
:100AE00083A681859147E396F6F88346150081BF7A
:100AF0009387070651BFB7170240D843B70640FF98
:100B0000FD16758FD8C3D8435A05598DC8C3828046
:100B1000371702405443B7177A002146B18A9387AA
:100B200007206396C6045C435843C166C983BD8BE6
:100B3000758F8907C5466393D700C94701EF3747CB
:100B4000024003270780418B09CF37177A0013072C
:100B5000072021A83717024058439316E700E3D631
:100B600006FE37173D0013070790B387E7021CC145
:100B70003716024054421D67130707BE9182BD8A93
:100B8000BA9683C60600B3D7D7005CC15442A1828F
:100B90009D8ABA9683C60600B3D6D70014C55442C0
:100BA000AD829D8A36970347070093868183B3D72A
:100BB000E7005CC5584239830D8B36970347070021
:100BC000B3D7E7021CC98280B7170240D84B81C552
:100BD000498FD8CB82801345F5FF798DC8CB8280B1
:100BE000B7170240984F81C5498F98CF828013452F
:100BF000F5FF798D88CF8280B7170240D84F81C525
:100C0000498FD8CF82801345F5FF798DC8CF828078
:100C100003570501F577FD177D8F83D7650039717F
:100C200022DC06DED98F2318F5000357C500FD77B7
:100C30009387379F7D8F83D745002A842EC6D98F0F
:100C400003D78500D98F03D7A500D98F2316F500C8
:100C50000357450183D7C5001377F7CFD98F231AE0
:100C6000F50068087535B747014093870780B2459E
:100C7000631AF404A2578356C4006547B387E7029A
:100C8000C206C186984163D1060406079306400652
:100C90000356C400B3D7E7024206418633D7D702D2
:100CA000B3F7D7021207635306028E079387270311
:100CB000B3D7D7029D8BD98FF2502314F40062541E
:100CC00021618280925745BF0A07C9B7920793876F
:100CD0002703B3D7D702BD8BF9BF8357C50091C592
:100CE0000967D98F2316F500828079777D17F98FF0
:100CF000D5BF8357450109C6CD8F231AF5008280E1
:100D000093C5F5FFED8FD5BF411122C406C611E989
:100D100083A7018705472398E700B2402244410199
:100D2000828083A741869C43829703A5018729057A
:100D3000EDB7411122C406C611E983A70187054713
:100D40002398E700B24022444101828083A7418674
:100D50009C47829703A501873105EDB703A701875B
:100D600041CD411122C406C6239001868347070066
:100D700093F7F70795EF034797009377070281C72B
:100D800089472380F1861377070483C7018619CF2B
:100D900093E717002380F18683A741869C4B8297B7
:100DA00013850186B240224441018280F99BDDB760
:100DB0008546E387D7FE89460145E395D7FE03477D
:100DC0005700B7660040938606C09377F7008A07FE
:100DD000B69762079C4361876359070093F707033F
:100DE0004147E39BE7FA854775B713D7C7400D8B9B
:100DF0008546E313D7FAC5BF89472318F700014595
:100E00008280011152C44AC803A9018722CC4EC670
:100E10000354090106CE26CA56C22DE08346890036
:100E2000914401446397960603A7C18585476312E1
:100E3000F704B767004083A707C5373700200907C5
:100E4000C207C183BA97860723A007009307000350
:100E5000239BF18623AE018483A701872384970017
:100E6000F2406244D2444249B249224A924A056160
:100E70008280C147239BF1869D44F9BF8357490176
:100E8000B3B48700B3049040F998910463F38700EA
:100E90003E84832789014204418022858297AA8A61
:100EA0000145EF00D05CAA8522865685EF00303AD6
:100EB000A2850145EF00D05F835709010D67818F3F
:100EC0002318F900835729013E9493070003239BBD
:100ED000F18623198900239CE186BDBF83A7018782
:100EE00083C6118303C73700094563E4E60283C65E
:100EF000270085E283D6470089EE411106C6238587
:100F0000E70083A74186DC438297B2400145410157
:100F100082808280411122C483A7018703A7C186F2
:100F200006C683C53700184F03C55700029783A72D
:100F3000018703C7A70005CF1DE903C7470009457F
:100F40001DE383C7270085E383A74186DC4782979B
:100F500083A70187014503C75700A385E70003C79F
:100F600037002386E700B2402244410182800945D0
:100F7000DDBF83A7018783C6070093F6F607638664
:100F800006100947639AE61083D627006396061079
:100F900083C647006392061083C657000111376766
:100FA000004013F5F6F7130707C022CC13142500F1
:100FB0003A94E206184006CE26CAE18663DA0604B1
:100FC0001377070303C60183637FC50A4DCF83C729
:100FD000A700094785CB1C4063DF060293F7070390
:100FE0004147639CE7001375F50F2AC6EF00704177
:100FF000324593050003EF00F02C83A74186DC4BBC
:1010000082970147F2406244D2443A85056182806A
:101010000D66718F45BF13D7C7400D8B85468D6414
:10102000E31DD7FC0DEDB707002083C5C70CEF000B
:10103000104A37670040130707C01C43F1769386B8
:10104000F6F8F58FE176A58F93860608D58FC2074F
:10105000C1831CC31443E58EE39D96FE79BFEF0068
:1010600090371C4071771307F7F8F98F6177A58FD8
:1010700013070708D98FC207C1831CC01840658FAA
:10108000E31D97FE9DBF0947B5BF03C797001377C0
:10109000F7FDA384E70001473A85828003A6018714
:1010A00037670040130707C08346560093F5F6F7ED
:1010B00093972500BA97E2069843E18663D0060627
:1010C0001377070303C80183094563F405098355B2
:1010D0002600B5ED2DCF0347A60025CF411198433B
:1010E00006C663D20604E5769386F6FB758FE17635
:1010F0001347070193860608558F4207418398C31B
:101100004146944393F60603639DC60083A7418638
:101110009C4F8297B2400145410182800D65698FE5
:1011200055B798C3F9BFF1769386F6F8758F0566C3
:10113000E176318F93860608558F4207418398C325
:101140008D659443ED8EE383C6FC98C3DDBF0945EE
:101150008280828003A70187411106C683479700DA
:1011600093E70702A304F70083A74186DC4F829729
:10117000B24001454101828083A6018703D7260141
:1011800019E583D74500998F2398F600828088411E
:101190003A958280B707002083C5C70C41110145ED
:1011A00006C6EF00D03283A7018703C58700A14799
:1011B0006318F5000567239CE1864147239BE18680
:1011C000B2405D15133515004101828001114AC8F6
:1011D00022CC03A4018706CE26CAB7670040834607
:1011E000840083A707C52547638BE604C20737370A
:1011F00000201107C183BA97860783D40700B76719
:1012000000408604BE9483C704002300F40083C713
:101210001400A300F40003D54400EF00F0312311C3
:10122000A40003D5840003A40187EF00F03023124B
:10123000A40083D7C40003A401872313F400035739
:10124000640085472304F400834414006313070EED
:10125000034704001377F70745EF25476395E4003C
:10126000B5393DE525A81547639DE404830734009F
:1012700063DD0700A14703A701872304F700624449
:10128000F240D2444249056131B783472400FDF35F
:1012900083574400E5F38347A400E9FFB7670040A4
:1012A00083A707C5373700200907C207C183BA974C
:1012B000860723A0070013070003239BE1869947B5
:1012C0005DBF0D476396E40203473400630DF700EA
:1012D00083A7C1862685DC4B82970D47A547E30C83
:1012E000E5F84DDD41BF83574400FDF3A5357DB7DB
:1012F000E390F4FE83473400E39C97FC835744005B
:10130000E1FB8347940093F70702F9D39D3191BF26
:101310006317F700AD47E39DF4FAED3E99B78946B0
:10132000E318D7FAE384F4FE8D47E393F4FABD3370
:101330000DBF9946639AD402034704001377F70759
:1013400069EF8346240003A7C1866395F6005C4FCE
:10135000A1E3E1A089476394F6001C53D5BF8D47F4
:10136000639DF60A5C53EDB7F1EC83562400D5E695
:10137000791745E7034744004DE30347040013771B
:10138000F7070DEF83574400C9EB85679387C7D5EF
:1013900003A701870145231907001CCF8297014548
:1013A00083A70187C166FD1603D707016304D70829
:1013B000791519C16317070E2147B5A86310F70205
:1013C00083A7C1860345540081459C4F829731E530
:1013D00083A7018783C7A700A9C345BF8947631EA9
:1013E000F7028347540037660040130606C093F5A2
:1013F000F70093F60707E20713972500E187329776
:1014000063DE07021C4393F7070303C7018393B608
:10141000160033B7E500758F61F303A7018783A733
:10142000C186034517009C4B82978D47E31AF5F65A
:1014300083A7018725472384E70091B51C430D67E7
:10144000F98FE1B72147639BE4008347040093F7DA
:10145000F707E1F78567938787D01DBF2947E39E8C
:10146000E4FA034704001377F707E318F7FA834712
:10147000A400C5D783572400CDF35C404177130700
:10148000F70FF98F4167E39AE7F883A7C186034511
:10149000540081459C4F829749F18567938727D3F4
:1014A000C5BD8386070063D2060403D6670083A602
:1014B000C18632C6B24583C6C60263FAE50032472A
:1014C0002398E700239AD700EFF0BF934DBBE37B4F
:1014D000C7FE6375D70023AE0184EDB73367D7022B
:1014E00075F3054623AEC184F1BF0D472384E700A1
:1014F0000D67239CE18661B301114AC822CC03A485
:10150000018706CE26CA4EC68347840015476388E6
:10151000E7001D476381E70C0D476392E70C835793
:101520000401184C85CF1DCB8354440163F397000D
:10153000BE84C204C1802685029783570401AA890C
:101540000145858F2318F40083572401A69723199A
:10155000F400352FAA8526864E85312B835704014A
:1015600099CB0D6781450145239CE186912713079F
:101570000003239BE186835704018356440103A79C
:10158000018763E2D7028D472304F7008347870072
:1015900003A701872304F7006244F240D244424982
:1015A000B2490561C5BE99C39547F9BF9947230460
:1015B000F700B767004083A707C5B7360020890644
:1015C000C207C183B697860723A0070093060003CE
:1015D000239BD18665BF83A7C186DC478297A1473D
:1015E00045BF83C801833766004085652168014790
:1015F000130606C09385F5F0130808086369170100
:1016000013650508B767004023A6A7C48280931618
:101610002700B2969C42ED8FD98FB3E707019CC299
:101620000507E9BF411122C483A7018706C683C607
:1016300087001387E6FF1377D70F19EFEFF06FFCE2
:1016400083A7018783C7870003A701872304F700C7
:101650002244B24041013DBE19476384E600A147E0
:10166000E5B783C617001547639EE60003C707006A
:101670001377F70701EB03C53700A53783A741862A
:101680009C53829783A7C1869C478297C9BF82805B
:101690009387412023A8F18609472384E700B707F1
:1016A00000209387070A23A6F186370700209C4372
:1016B0001307C70723A2E186828779714ECE52CCE9
:1016C00056CAB7690040370A0020B70A002026D260
:1016D00006D622D44AD05AC823170100938949C498
:1016E000130A8A03938ACA0183A70900239FF188FA
:1016F000139707016355071483D7E18937670040C3
:10170000BD8B238AF186130707C06390072E1C4305
:101710008D66239CF18683D78187B1659385F5F823
:1017200093F70703239BF18683D7818721651305F0
:101730000508F58F239CF1861443A5679387F7FB73
:10174000FD8E1C4393C60602ED8F8965AD8FB3E510
:10175000D700C98D0CC3A165938505081305000248
:10176000CD8E0C4393F505036395A50E2167376471
:10177000004013070708130404C08D658966D98FDC
:1017800018406D8F6319D70C83D7E189C18BF1EBBA
:101790001C4025671307F7F0F98F1CC0613518400E
:1017A000A5679387F7FB7D8F1C40B1669386F6F89B
:1017B000F58F83D6818713963601635406008566BC
:1017C000B58F83D6818713962601635406008966F8
:1017D000B58F83D66187C18A99C21347070183D623
:1017E000618793F6060299C213470702A166336622
:1017F000F70093860608558EB7660040938606C0AC
:1018000090C2617613060608518F420741839042C9
:1018100083D56187137606036391C504E1769386C9
:101820000608D58F37670040C207130707C08D65CC
:10183000C183144303D68187ED8E6312D602B25062
:10184000225492540259F249624AD24A424B4561AB
:10185000828014C339B71CC025B798C24DBF1CC3C2
:10186000C9BF1C40056B2317F1008357E100139794
:101870004701635C070A1C401307FBF8F98F1CC083
:10188000EFF0DF941840A5679387F7FB7D8F1C402E
:10189000B1669386F6F8F58F83D68187B3F6660135
:1018A00099C2B3C7670183D6818713962601635413
:1018B00006008966B58F83D66187C18A99C21347AE
:1018C000070183D6618793F6060299C21347070280
:1018D000A1663366F70093860608558EB76600400A
:1018E000938606C090C2617613060608518F4207A0
:1018F0004183904283D56187137606036395C502C1
:10190000E17693860608D58F37670040C207130734
:1019100007C08D65C183144303D68187ED8EE30034
:10192000D6F21CC3CDBF98C2E9B78357E100C20706
:10193000C187E3DB07DA1C4005671307F7F8F98F67
:101940001CC05D3E1840A5679387F7FB7D8F1C4048
:10195000B1669386F6F8F58F83D68187B3F6660174
:1019600099C2B3C7670183D6818713962601635452
:1019700006008966B58F83D66187C18A99C21347ED
:10198000070183D6618793F6060299C213470702BF
:10199000A1663366F70093860608558EB766004049
:1019A000938606C090C2617613060608518F4207DF
:1019B0004183904283D56187137606036395C50200
:1019C000E17693860608D58F37670040C207130774
:1019D00007C08D65C183144303D68187ED8EE30074
:1019E000D6E61CC3CDBF98C2E9B7939627003697B9
:1019F00014432317D1008356E100C206C18663DD7C
:101A00000600FD1714438A070566D6971306F6F8F5
:101A10009C43F18E14C382978357E10093F7070824
:101A2000E38407CC83C74187B7660040938606C02E
:101A3000139727003697FD1714438A07D297256618
:101A40001306F6F09C43F18E14C3829771B9B73731
:101A500000200506BE950586860511E28280834733
:101A60001500034705009105A207D98F239EF5FEB7
:101A700009057D16DDB7B73700200506BE9505863A
:101A8000860511E282809C4109057D16231FF5FE23
:101A90009105C5BFC167E1177D8DB767004023A8D9
:101AA000A7C48280B7670040938707C00A053E95A8
:101AB0001C4165771307F798F98FDD8DC205C18149
:101AC0000CC18280B7670040938707C00A053E9526
:101AD0001C4165771307F7FBF98F13F7050119C34D
:101AE00093C7070113F7050219C393C7070261776C
:101AF00013070708D98FC207C1831CC11841137788
:101B00000703E31CB7FE8280B7670040938707C0D6
:101B10000A053E951C4171771307F7F8F98F139763
:101B20003501635407000567B98F13972501635486
:101B300007000967B98F617713070708D98FC207B4
:101B4000C1831CC18D661841758F6313B7008280F5
:101B50001CC1D5BFB7670040938707C00A053E95F3
:101B60000841137505038280B7670040938707C05B
:101B70000A053E951C4165771307F7FBF98F6177DE
:101B800093C7070313070708D98FC207C1831CC176
:101B9000930600031841137707036313D70082806D
:101BA0001CC1CDBFB7670040938707C00A053E95AB
:101BB0001C4171771307F7F8F98FE1760D67B98F3C
:101BC00093860608D58FC207C1831CC11441F98EC4
:101BD000E39DE6FE8280B7670040938707C00A0551
:101BE0003E951C4113971701635C07001C41056774
:101BF0001307F7F0F98F316713070708D98F1CC156
:101C00008280B7670040938707C00A053E951C4154
:101C100093F7070499CB1C4105671307F7F0F98F79
:101C200021671307070CD98F1CC18280B76700405A
:101C300083A707C50E058581C207C1833E95B737C7
:101C400000203E95060586050CC18280B7670040DE
:101C500083A707C50E058581C207C1833E95B737A7
:101C6000002091073E95060586050CC18280B76766
:101C7000004003A707C59317350042074183BA9771
:101C800037370020BA97860703D507008280B767E9
:101C9000004003A707C59317350042074183BA9751
:101CA000373700201107BA97860703D507008280CF
:101CB000B767004083A707C50E05C207C1833E95DD
:101CC000B737002089073E9506050CC18280B767AB
:101CD000004083A707C50E05C207C1833387A7004D
:101CE000B737002099073E979307E003060763FE86
:101CF000B70093D75500FD8981E5FD17C207C18361
:101D000093E70702AA071CC3828093D71500858931
:101D1000AE97CDBFB767004003A707C5931735003F
:101D200042074183BA97373700201907BA978607C9
:101D300088431375F53F82809357850022053E95B1
:101D4000420541818280B767004023A207C4F17732
:101D5000938707F02394F186B16737670040938734
:101D600007F02320F7C401458280011122CC1374AF
:101D7000F507228506CE26CA32C6AE84CD3D03566F
:101D8000C100AA85268532C6D931B24522850D37D4
:101D9000F2406244D244014505618280411122C46F
:101DA0001374F507228506C626C24AC02E899D37C0
:101DB000AA842285E93DAA8526864A856D39B240E6
:101DC0002244024926859244410182808280411149
:101DD0009385011C0D4506C6D137B240B7170020C8
:101DE000938747242396A788410182808280B76623
:101DF0000040938646C49C42797122D4239FF18887
:101E000026D203D7E18983D7818606D67D8F1377C3
:101E1000072011CB41671307F7DF98C203C7C189B9
:101E20000507238EE18803D7E189F98FC207C187AF
:101E300063D40700EFF07F8883D7E18903D78186D9
:101E4000F98F93F7074091CFC1679387F7BF376743
:101E500000402322F7C4B70700209387070ADC431A
:101E6000829703D7E18983D781867D8F93162701D7
:101E700063D806003967B76600407D1723A2E6C421
:101E800003D7E189F98F13973701635B0700BD67BB
:101E900037670040FD172322F7C40145EF003002E9
:101EA00003D7818683D7E189F98F13974701635F51
:101EB000070083A74183638C0710EF00E070BD67C4
:101EC000376700409387F77F2322F7C483D7E189E0
:101ED00003D78186F98F93F70710638E070EC167CA
:101EE000376700409387F7EF2322F7C4832787C41F
:101EF000139707016354070C83A78189850723ACD7
:101F0000F18803A781898D4763FCE70A37670040A2
:101F1000130707C41C43A18BC5E71043B7680040F3
:101F20004206418223AAC188938808C001460A85D7
:101F30002143931526003388150103280800AA952C
:101F4000050642081358080123A00501E31366FEA5
:101F500003A641891366160023AAC18883A5418977
:101F600037660040130606C4C205C1810CC283A5B2
:101F70004189F99923AAB18803A74189420741837E
:101F800018C237670040130747C410431376064052
:101F90006DDE41661306F6BFB765004010C393853A
:101FA00005C02148139727003306E50010422E97FD
:101FB00085074206418210C3E39607FF23AC0188E0
:101FC0002254B25092541D4545616F00406F09453F
:101FD000EF00E06EEDB5B25022549254456182801C
:101FE000011126CA4EC603A7818883A7C18806CEE1
:101FF00022CC4AC86317F70083C7018913F5F70F8E
:10200000A5C783A7818883A501889A079A051389A4
:102010000122138501423E95CA95EF00501C83A70B
:10202000018883A78188214785076393E70081475B
:1020300023A4F18803A7818883A7C1886314F700CC
:102040002388018803C7C1801DC72386018083A51B
:10205000018813060004130510089A05CA95313348
:102060000545EFF07FB00545F2406244D244424955
:10207000B2490561828083A7018821478507639360
:10208000E700814723A0F18803A7018883A7C187C0
:10209000E31BF7FC05472382E188F1B703470500FE
:1020A0009D476316F70005472388E18A8280411126
:1020B00022C426C203A7C18883A7818806C66315E8
:1020C000F70083C70189A1E383A7C1882E86AA856B
:1020D0009A07138501423E95EFE08F8783A7C18859
:1020E000850723A6F18803A7C188A1476314F700D9
:1020F00023A6018803A7C18883A781886315F700F9
:1021000005472388E188B2402244924441018280FD
:102110005D711306000481450A8586C6EFE04F8293
:102120008A850545A5390A8593050004853F8D6597
:102130000545EFF07F9DB64061618280411122C468
:1021400026C203A7C18783A7018806C66315F700C7
:1021500083C74188A1CB83A7C187938501229A07B2
:10216000BE95130600041305100801310545EFF074
:10217000BF9F83A7C187850723AEF18603A7C187C9
:10218000A1476314F70023AE018603A7C18783A785
:1021900001886314F70023820188B24022449244EC
:1021A0004101828005472386E180C5BF41BF83C7C7
:1021B000E12081C7154723A6E18A8280114723A623
:1021C000E18A8280828013352500B335B000133553
:1021D00015004D8D0605828019E583A701871D47EF
:1021E0002398E7008280370500201305050D8280C3
:1021F000E5B7411126C203A7018706C622C483475B
:102200000700854693F7F7076394D70483472700B1
:1022100093062002638AD702930610020945639051
:10222000D70209641304E45600CF0145029483A742
:102230000187014580CF2399070002940145B240F0
:102240002244924441018280096413046456E9BF28
:10225000930610020945E394D7FE03471700630A6B
:10226000F70093070002E31CF7FC09641304041F42
:102270007DBF09641304841D5DBF83A7018703C567
:10228000070083C717001375F5071305F5FD93873E
:10229000E7FD93B727003335A0005D8D134515008A
:1022A0000605828083A70187411106C623850700A2
:1022B000C52CB7670040056637670040938707C0A5
:1022C0001306F6F0130707C29443F18E94C39107E7
:1022D000E39CE7FE1307F00FB767004023A2E7C4B3
:1022E000EFF07FA68145014523A6018AEFD03FF696
:1022F0005145EFE00F80B24085452E8541016FD0FA
:102300001FF51D6783A70187034737C7411106C61D
:1023100022C4A384E700239507000145EFF08FF75F
:10232000930500200145EFF0EFF793050008014504
:10233000EFF0DF8F93050004014537040020EFF034
:10234000FF901304040A8345C4020145EFF05F9631
:102350008345C4020145EFF09F97C1450145EFF069
:102360006FF68D650145EFF02FFAB7670040938750
:1023700007C098439316170163DC060098438566EF
:102380009386F6F0758FB16693860608558F98C3CD
:10239000B7670040938707C098431377070419CBAA
:1023A000984385669386F6F0758FA1669386060C32
:1023B000558F98C3930500600545EFF0AFEE930588
:1023C000000C0545EFF09F86930500100545EFF0E2
:1023D000FF87930500040545EFF09F8D93050004EA
:1023E0000545EFF0DF8E930500020545EFF08FED18
:1023F0008D650545EFF04FF1B7670040938747C003
:1024000098431377070419CB984385669386F6F0B3
:10241000758FA1669386060C558F98C3B7670040E9
:10242000938747C098439316170163DC06009843CF
:1024300085669386F6F0758FB16693860608558F8C
:1024400098C3930500600945EFF0CFE593050014AC
:102450000945EFF0AFFDA1450945EFF07F859305F4
:1024600000020945EFF00FE681450945EFF0CFE99D
:10247000B7670040938747C098431377070419CB89
:10248000984385669386F6F0758FA1669386060C51
:10249000558F98C381450D45EFF0CFE093050018A7
:1024A0000D45EFF0AFF89305001C0D45EFF00FFA66
:1024B000930500040D45EFF0AFFF930500040D45B3
:1024C000EFF0FF80930500020D45EFF0AFDF8D6563
:1024D0000D45EFF06FE3B76700409387C7C098439F
:1024E0001377070419CB984385669386F6F0758FAA
:1024F000A1669386060C558F98C3B76700409387F3
:10250000C7C098439316170163DC0600984385669D
:102510009386F6F0758FB16693860608558F98C33B
:102520000145EFF00F8CB2402244054723A6E18A13
:1025300041018280938581826FE01FC4938501826F
:102540006FE09FC383A7018783C53700914763EA84
:10255000B700B70700208E0593874705BE956FE04B
:10256000BFC101458280938581816FE0FFC0938563
:1025700001816FE07FC083A701879843C16793877C
:10258000F7F77D8F8967938717026318F700370580
:1025900000201305050D6FD0DFF6828082808280D7
:1025A000B7670040938707C4054798C323A0070077
:1025B00037670040232207C40967130707C0239425
:1025C000E18698C301458280B767004083A707C4AE
:1025D000376500400147130505C013860162214895
:1025E00093162700B385A6008C41B2960507C20555
:1025F000C1818CC2E31607FF93E60740C206376726
:102600000040130707C4C18214C393E61740C206F3
:10261000C182F99B14C393E60740C206C18214C36A
:1026200037670040130747C4144393F60640EDDEB6
:10263000C1669386F6BF3765004014C3130505C015
:102640000147214893162700B305D6008C41AA966E
:102650000507C205C1818CC2E31607FF93E78740D7
:10266000C20737670040130707C4C1831CC31C435C
:1026700093E74700C207C1831CC30D4723A6E18A25
:10268000828003C7E12009C7154723A6E18A82801B
:102690000547E5BF411122C437640040130404C458
:1026A0001C4006C6ED9BC207C1831CC0D93FB16761
:1026B000938707F0B2401CC022444101828041113F
:1026C00022C406C69D471384418A6303F50008C0EF
:1026D0001C401547636DF7001D678A071307C7CEB7
:1026E000BA979C43828783A7018A81E76537994718
:1026F00011A095471CC039A0713F91471CC00547E8
:1027000023A0E18AB240224441018280894723020A
:10271000F4008D47C5B783474400FD172302F4003A
:1027200083474400E5F39147F1B73767004013074B
:1027300007C41C4393E70701C207C1831CC3954725
:102740001CC0A9472302F40075BF83474400FD174E
:102750002302F40083474400D5F73767004013078E
:1027600007C41C43BD9BC207C1831CC399471CC03F
:1027700023A0018A41BF79714ECE2A868146370552
:10278000A24A914522D426D24AD056CA06D652CC65
:1027900093890164EF40C00DAA8403A409002E8927
:1027A000AA8A99E16378A40833858440B3B7A4006A
:1027B000B307F94003A649008146935516002E95AC
:1027C000B335B500BE9532C6EF40800A59E53246B2
:1027D00083A789002296333486006314090063FEC0
:1027E0005705B386F440B3B7D400B307F940636626
:1027F0002401631C8904637A56053387C440B3B44B
:10280000E40033048940058C6366F400639E87040A
:10281000637CD7040545014793870165A380E700E2
:10282000B2502254C8C392540259F249624AD24A61
:102830004561828001458147B5BFB386974033B774
:10284000D700B3072041998F6DB7330796403336D1
:10285000E60033042441118C45BFB7070001E36C47
:10286000F5FA1385F7FF45BF05473A8575B701119E
:102870008545114506CE22CC26CAEFE06FB68545C8
:102880002145EFE0EFB591473715014089443EC639
:102890004C008D47130505803EC423129100EFE0E4
:1028A000AF883715014005444C00130505802312FD
:1028B0008100EFE06F87371501404C00130505805C
:1028C00023129100EFE04F86371501404C001305AD
:1028D000058023128100EFE02F8537150140930713
:1028E00000084C00130505802312F100EFE0CF83B0
:1028F00037150140930700044C001305058023128F
:10290000F100EFE06F82F2406244D24405618280C0
:10291000797122D437140140130404804AD003296A
:10292000040006D626D24ECE52CC56CA937709F072
:10293000B7F400E08329C4001CC095479CC04C003C
:102940000945EF30E0762A8A2C0013052002EF308B
:102950002076AA8A6800EF30105B23A0040023A22F
:10296000040081479CC4014823A6040123263401A6
:102970002320240192473247B306FA00A247138668
:1029800001642A9723260600D69729C363F0F6042C
:10299000958F86079583B385F64086050CC206079A
:1029A00085655CC218C6138507E0938505A063EFB3
:1029B000A5008606860763FBD7009167130707E823
:1029C000938717A86374F70085475CC6B2502254FA
:1029D00092540259F249624AD24A45618280834741
:1029E00005007D4793C607086364D7006F10E02594
:1029F00059711387150086D6A2D4A6D2CAD0CECEDE
:102A0000D2CCD6CADAC8DEC6E2C4E6C2EAC06EDEFE
:102A10003AC42380F50075476374F7006F10001700
:102A20009D66139727009386C6D0369718432E8449
:102A30002A890287034715009306100F6307D708FA
:102A400063E2E604A5466308D7069306000F630B0E
:102A5000D70891466308D704370702000907A30087
:102A6000F4003385E700B650265496540659F649CB
:102A7000664AD64A464BB64B264C964C064DF25DFE
:102A8000656182809306E00F6301D7061306F00F9D
:102A900093060004E312C7FC2301D400A301040041
:102AA00089475DBF19469385018413052400EFD043
:102AB0002FEA994755B79D651546938545D013056F
:102AC0002400EFD0EFE8954741BF8557A381F5007B
:102AD000D5572382F5009547A382F5002381050091
:102AE00091479DBF9306300345BFA1472381F50061
:102AF00085479DB78347150099CB05476389E70054
:102B00009307F00FA300F4003705020049AC034718
:102B10002900B717014093870780058B93060002B1
:102B200001C794CB8147F9BFD4CBEDBF83441500D7
:102B300005496377990089476380F406814489A831
:102B40003715014089451305058023882165EFD09D
:102B5000FFEC37150140CA8513050580EFD01FEC47
:102B600089472312F10237150140C1473ED64C1068
:102B70008D47130505803ED4EFD01FDB371501408C
:102B80004C101305058023122103CA84EFD0DFD92E
:102B9000A3009400416521A437150140A6851305C3
:102BA000058023889164EFD07FE737150140CA85FF
:102BB00013050580EFD09FE6371501409305000807
:102BC00013050580EFD09FE5C147371501403ED67C
:102BD0004C108D47130505803ED423129102EFD08F
:102BE000BFD4371501404C10130505802312210373
:102BF000EFD09FD337150140930700084C10130501
:102C000005802312F102EFD03FD29307000437155D
:102C100001402312F1024C10930780041305058034
:102C20003ED6EFD07FD0ADB723880164EFF03FC42C
:102C30000545A3000400C16785073E952DB5834770
:102C400015000345250022055D8D93870164D84753
:102C500009CFD043A5673305F50281468145EF30A2
:102C6000304119C17D157DFD75BD93070003330506
:102C7000F502C5BF23810500A3800500094565BF96
:102C80000346450083463500034725002206558E3E
:102C9000834655009375170083471500C206D18EF1
:102CA000034665006206558E99C9B716014013F5B3
:102CB00017000948938606806DC523A8060113787E
:102CC0002700630C0800B716014013F5270085485C
:102CD0009386068071C923A8160193784700638DF7
:102CE0000800B716014013F54700938606801303CA
:102CF000000855CD23A866001313870113538341A1
:102D0000635C0300B716014013D5770093860680F5
:102D1000414E4DC123A8C60139C6B71601401377ED
:102D200007029386068013D5770013DE270093DE13
:102D3000170091C590460582058AE39DC7FE63068C
:102D400008009046058AE396CEFE63880806904602
:102D50001D82058AE31FCEFC635703009046118253
:102D6000058AE318C5FC37170140130707801C4785
:102D70000C4710471447858318478605858B89893A
:102D80001582CD8F118A8D82D18FA18A0E07D58FA2
:102D900013770708D98FA300F4003705060005054F
:102DA00059BD23AA060121BF23AA16013DB723AAB4
:102DB000660099B723AAC60185B759DF13D6570015
:102DC00041DE85BF034725008347150022075D8F3D
:102DD0008347350003454500C207D98F62055D8DE5
:102DE0009307F00F01C993870164DC4789CBEFF0AB
:102DF0009F988147A300F400370504004DB7B757EB
:102E000025029387F70F63E7A702B7A74A049387C2
:102E1000F71FAA97B3D7A702894605476385D7004E
:102E20000D4733D7E702814693870165A380D7001A
:102E3000D8C3C1B785463687C5BF834415009305FF
:102E4000250099E0930400102685EF105016138595
:102E500074000D81A30004000505420513651500EB
:102E6000D9BB834715001387016593F63700898323
:102E70008506858B230CD700A30CF700C1B1A38076
:102E80000500034A15008549B7140140138B25003E
:102E9000930725004E84CE8B9384048063170A0029
:102EA000131504013365350179B303C507007D1A95
:102EB000938A17001379F5036314090013090004BA
:102EC000131C85011D09135C8C4113593900635D86
:102ED0000C0223A874019C40C19B93E787009CC00F
:102EE0005A86D685EF10B01263190A0023AA74011E
:102EF0009C40C19B93E737009CC00504635D0C00B8
:102F00004A9BCA99D68759BF23AA74019C40C19B8A
:102F100093E73700E9B7CA9A4A94EDB7A380050052
:102F2000034A15008549938A2500930725004E849E
:102F3000E3080AF603C907007D1A138B1700937480
:102F4000F90399E0930400044A859D045686DA85C6
:102F500062098D80EF005050050413598941B30771
:102F60009B002694E35609FCA69AA699D1B78347FD
:102F7000150013870165230DF700BA853A883A8555
:102F800001468146636AF60001466364F602A300C7
:102F9000040013851700D1B5B308C90083C8280001
:102FA00009080505A30D15012311D8020506C696CB
:102FB000D1BF03C5C50109078505898E2319D7022D
:102FC0000506E1B79387016583C60700094763914A
:102FD000E60403471500A38DE70083C7A7016379C3
:102FE000F7023945EF00307CEF0090519357850090
:102FF0002301A400A301F400935705016181A302FA
:10300000A4004165A30004002302F400150525B1C6
:103010009304F00FB5BE034715009387016523861F
:10302000E70003473500834625002207558F239884
:10303000E70003475500834645002207558F239933
:10304000E700A30004003705050091BB93840165E8
:1030500083C90400930715003EC8054C63868903A5
:1030600089476380F94083462500930735006393C1
:10307000067A4247A3000400230104003385E74099
:1030800042051365250045BE834B2500130C350012
:10309000938D35002388018A814A014D014502CA7A
:1030A000094B63970B020546631CC53663090D384F
:1030B00083D4040109494C103945EF109000631F77
:1030C000253389C483C6018BFD14F5D6094589AE25
:1030D00003490C0093071C003EC6137629006306C3
:1030E0000622630D0D089375190183DC04016390BA
:1030F00035034C104A85EF10C07C631A6503638664
:103100000C0083C5018BFD1CEDD50945D1A0668D52
:103110004C103945EF10E07A631A6501E3070DFEA4
:1031200003C6018B7D1D6DD6014DC5B7014D6311E1
:10313000350B1256935586002380CD00A380BD0029
:103140009355060161822381BD00A381CD006303F5
:103150000D081316890161866A85635D0606904431
:10316000A10D93558600238ECDFEA38EBDFE9355F3
:1031700006016182238FBDFEA38FCDFE1376090168
:1031800083DC0401937819004DCA83452C00034663
:103190001C00A205D18D03463C0042064D8E83459E
:1031A0004C00E205B3E7C5003ECC93075C003EC689
:1031B00003DC24016385080281454A85EF106070B5
:1031C000631C650163860C0083C7018BFD1CEDD772
:1031D000324C05A4910D5DB78547E31BF5FE83DCFA
:1031E00004014C104A85EF10C06DAA876313650374
:1031F00063860C0083C5018BFD1CE5D5D048925534
:1032000062476D8E6307C70293E7070113F5F70F57
:10321000C1B7E31535FFDC4892556247ED8F63086F
:10322000F70063060C0083C7018B7D1CCDDBCE87C6
:10323000F1B7E31F35F9814AA1A863840806E31CAE
:103240000DFE094C81454A85EF10A0676319850181
:1032500063890C1483C7018BFD1CEDD795BF85478F
:10326000E318F5F6620913598941635809169C441D
:10327000814A2A8D93D687002380FD00A380DD003C
:1032800093D60701E1832381DD00A381FD00910D29
:10329000D24785073ECA83C7018B9DFB324CFD1B7D
:1032A00009B54C104A85EF10C06163196501E381CF
:1032B0000CF283C7018BFD1CEDD719BF8547E319BD
:1032C000F5F0620913598941635109029C44910D3B
:1032D00013D68700238EFDFEA38ECDFE13D60701E5
:1032E000E183238FCDFEA38FFDFE9257910D13D660
:1032F0008700238EFDFEA38ECDFE13D60701E1834A
:10330000238FCDFEA38FFDFE3DB763050D0403D6CD
:1033100004014C10394532CCEF10A05A631A6501F4
:103320006246E30706EA83C5018B7D16FDD14DB5E4
:103330000546E31FC5E89256910D13D68600238EED
:10334000DDFEA38ECDFE13D60601E182238FCDFED6
:10335000A38FDDFE83462C0003461C0093075C0010
:10336000A206D18E03463C003EC693770902420670
:10337000558E83464C00E206D18E36D289C7D4C81A
:10338000014D054531B703DD04014C104A85EF10AE
:103390004053631A6501E30D0DE283C7018B7D1D68
:1033A000EDD7014D35B58547E31DF5FE620913598B
:1033B0008941AA8A635109029C44910D93D68700E2
:1033C000238EFDFEA38EDDFE93D60701E183238FBE
:1033D000DDFEA38FFDFE014D65BD814A2A8D4DBDE9
:1033E00003460C009375260081C9418A11E6050C3D
:1033F000FD1BE3970BFE45B9150CDDBF8546631138
:10340000D5029256910D13D68600238EDDFEA38E33
:10341000CDFE13D60601E182238FCDFEA38FDDFE04
:10342000D2472301A400A300F400C2473305FC40A7
:10343000A24742053387FD40598D6FF0CFFFE381EE
:103440000AFE83D40401094981453945EF106047DC
:10345000E31825FDE38C04C683C6018BFD14EDD66D
:10346000B5B18347150083C6A4012388018AA38DC3
:10347000F400938D350063FAD738034B2500930B86
:1034800035000146014D0145814C631D0B02328917
:1034900005466317C53429456304A900EF00B03021
:1034A00083D40401094963050D344C103945EF00FC
:1034B00030596315253189C483C6018BFD14F5D6B7
:1034C000094539AE03CA0B0093871B003EC613792A
:1034D0001A0093752A002909638D051E630E0D0AD3
:1034E00003D804016318260393750A0185E54C107F
:1034F000528532CC42CAEF00B0546246631635059D
:1035000052486306080083C5018B7D18EDD13289CE
:103510000945C5A0A9476307F6003E8542CAEF00EA
:1035200090285248428D4C103945EF007051631B72
:10353000350163040D6603C6018B7D1D6DD62946DA
:10354000014DF1B72946014D63188527925513D8CF
:1035500085002380BD00A3800D0113D80501E18102
:1035600023810D01A381BD0063070D0893158A0116
:10357000E1856A8563D105088C44A10D13D58500CA
:10358000238EBDFEA38EADFE13D50501E181238FF1
:10359000ADFEA38FBDFE6A8593750A01E1CD03C51B
:1035A0002B0083C51B0022054D8D83C53B00C20542
:1035B000C98D03C54B006205B367B5003ECA93874A
:1035C0005B003EC683DB2401630526014A85EF00CC
:1035D000901D83D70401814552853ECCEF005046B3
:1035E000AA88631C3501E24789C703C6018BFD1712
:1035F0007DD2B24B6DAA910D45B78547E31BF5FE11
:1036000003D804014C10528546CE42CCEF00504303
:103610000943F248AA87631B6500624863060800F5
:1036200083C7018B7D18F9DFCE8705A0631F1501C5
:10363000CC4812585247B3F505016308B7006386BA
:103640000B0083C5018BFD1BC5DDD0489255524749
:103650006D8E6307C70093E7070113F5F70F51BF9E
:10366000E31985F983C7018B850CC1F7B24B7D1B2C
:103670004A8621BD63120D12630526014A85EF00BB
:10368000901283DB040181455285EF00703B631982
:10369000350163890B0E03C6018BFD1B6DD691BFEF
:1036A0008547E318F5F4620A135A8A412A8DE35BD1
:1036B0000AFA9C44910D13D68700238EFDFEA38E3B
:1036C000CDFE13D60701E183238FCDFEA38FFDFE30
:1036D00051BF630C0D04A9476305F6003E85EF005A
:1036E000900C03D604014C10394532CAEF00503516
:1036F000631A3501524609C683C5018B7D16E5D58F
:103700002949C5BD0546E31DC5FE9256910D13D648
:103710008600238EDDFEA38ECDFE13D60601E18248
:10372000238FCDFEA38FDDFE294683C62B0083C5E4
:103730001B0093875B00A206CD8E83C53B003EC66F
:1037400093770A02C205D58D83C64B00E206CD8E63
:1037500036D291C7D4C83289014D054521B76305DA
:1037600026014A85EF00300403DD04014C10528528
:10377000EF00102D631A3501E30D0DE683C7018BB1
:103780007D1DEDD7014DB5B58547E31DF5FE620AF8
:10379000135A8A41014D21BF3289E9B503C60B0096
:1037A0009375260081C9418A11E6850B7D1BE317BD
:1037B0000BFEF9B9950BDDBF328925BD8546631136
:1037C000D5029256910D13D68600238EDDFEA38E70
:1037D000CDFE13D60601E182238FCDFEA38FDDFE41
:1037E000C2472301A400A30094013385FB4089B1A3
:1037F00081453945EF00D024E31425FFE38204CC52
:1038000083C6018BFD14EDD665B9930B2500814C61
:103810000145F9B703C707001376270019C6418B86
:1038200009E78507FD166FF09F849507E5BF93892B
:10383000016583CC0900054D638DAC018947638523
:10384000FC16A380050023810500A38105000D451A
:1038500069A88347350003472500A2072388018A0A
:1038600033EDE70093844500630E0D12834A450053
:1038700093F72A009DE7930D5500014A83DB090168
:10388000631E4D0D894981453945EF108003AA8794
:103890006312350563810B1083C7018BFD1BE5D7D0
:1038A000DDA893F71A00DDC703DA0901894B8145CA
:1038B0005685EF100001AA87631A7501630C0A0090
:1038C00003C7018B7D1A65D7014A29A00547014A24
:1038D0006302E508A3004401135A8A00230144014E
:1038E000A301F400A2473385F44083474900898B44
:1038F00063860720B70704005D8D6FF0CFB3E31B2D
:1039000095FD12579104050A93568700A38ED4FEA5
:1039100093560701238EE4FE238FD4FE6183A38F89
:10392000E4FEE3090DFA7D1D63160D0093F71A00FE
:1039300091C3B94A83DB09014C105685EF007078BA
:10394000AA87E31EB5FBE3870BF803C7018BFD1BBA
:1039500065D749B7014A894D854CF1B783C71D002A
:1039600003C70D00A207D98F03C72D0042075D8F43
:1039700083C73D00E207D98F3ED24C105685EF0039
:1039800050748946AA87631AD50063860B0083C7E3
:10399000018BFD1BFDD3894735BFE31D95F3910DC9
:1039A000050AE9BD81470DB78347150003C7A90183
:1039B0002388018AA38DF9009384450063FEE712F2
:1039C000034A350083472500220A336AFA0063055B
:1039D0000A12834A450093FB1A00138CAB006285E0
:1039E000D92393F72A00A1E713065900814B034717
:1039F00016008346060083DD09012207558F8346A2
:103A00002600C206D98E034736006207558F3AD288
:103A10004C10568532C6EF00B00232466315950B46
:103A200063850D0603C7018BFD1D7DD3B9A883DB1C
:103A3000090181455685EF00B000631A9501638640
:103A40000B0403C7018BFD1B6DD7814B3DA80547B8
:103A5000814B631CE502294D894CAA8D7D1A6317A1
:103A60000A006304AC0129453D2BB94A03D709017B
:103A70004C1056853AC6EF00A07C6311950332477F
:103A800009C783C6018B7D17E5D693D78B00A300AA
:103A900074012301F400A301A400A9B5E317B5FF45
:103AA00012579104850B93568700A38ED4FE93562C
:103AB0000701238EE4FE238FD4FE6183A38FE4FEEF
:103AC000E31E0AF8D9B7E312A5FD850B1106E31032
:103AD0007AF329456303AC00F92183D90901094A26
:103AE00081453945B12FE31245FBE38009FA03C74D
:103AF000018BFD1975D751BF014581BF834739003F
:103B000003472900A207D98F8507CA07F5B3938712
:103B1000016503C707008546630AD7008946630C21
:103B2000D702FD57A300F4006FF0EFD183473500B3
:103B3000034725004C10A207D98F034745004207D1
:103B40005D8F834755000145E207D98F3ED2EF00D4
:103B500050576FF00FCF03471500A38DE70083C7C1
:103B6000A701E370F7FC21453D290347390083474E
:103B700029000345590022075D8F834749006205EC
:103B8000C207D98F5D8DAD246FF0AFCBFD57416576
:103B90002380F50005056FE01FED29468DBA011160
:103BA00006CE22CC26CA23980164130740069387C9
:103BB0000165414498CB0547239CE700C0C3238699
:103BC000070023AA0700238D0700EFE05FCA37151F
:103BD00001408D47930400024C00130505803EC44C
:103BE0002312910022C6EFC03FD4371501404C008C
:103BF0001305058023129100EFC01FD33715014034
:103C0000A28513050580EFC07FE137150140D1473C
:103C10004C00130505803EC623128100EFC0DFD0A3
:103C2000EFE01FCF93870164DC4799CB6244F240F9
:103C3000D24437153D001305059005616FE0BFB311
:103C4000F2406244D24405618280834705004165A9
:103C500005052380F50082809376F50399E29306AB
:103C60000004B717014013770504938707800548C0
:103C700051C323A80701B7170140130F000893870A
:103C80000780894F938801653375E50183CE050070
:103C900085052143014713F81E006300080623A889
:103CA000E70123AAF70103A84800630508007D186F
:103CB000E31F08FE03A8870023A8F70103AE48000E
:103CC00063050E007D1EE31F0EFE060805831378B4
:103CD00008087D133367E800FD166305030093DED3
:103CE0001E00D5FA11C5335767002300E60005060C
:103CF000D1FE828023AA0701BDBF23AAE70155B7E1
:103D0000371701401307078085450CCB894654CBF4
:103D100093870165D04319C27D167DFE14CBD04335
:103D200019C27D167DFE4CCB54CBD04319C27D16F3
:103D30007DFE14CBD04319C27D167DFE54CBD043FB
:103D400019C27D167DFE14CBD04319C27D167DFEAF
:103D500083C5B701D1E1371701407D4813070780BC
:103D6000894654CBD04319C27D167DFE104714CB33
:103D7000C84319C17D157DFD19827E064D8E7D18C3
:103D800093551600E31F08FC05482328070154CB70
:103D9000D04319C27D167DFE084714CBD04319C20B
:103DA0007D167DFE54CBD04319C27D167DFE14CB0B
:103DB000D04319C27D167DFE232A070154CBD04380
:103DC00019C27D167DFE14CBDC4399C3FD17FDFFA0
:103DD00019817E054D8D8280D04354CB19C27D164A
:103DE0007DFE14CBD04319C27D167DFEFD159DB717
:103DF000371701401307078085450CCB894654CB04
:103E000093870165D04319C27D167DFE14CBD04344
:103E100019C27D167DFE4CCB54CBD04319C27D1602
:103E20007DFE14CBD04319C27D167DFE54CBD0430A
:103E300019C27D167DFE14CBD04319C27D167DFEBE
:103E400083C5B701D04363950510930500084CCB9B
:103E500054CB19C27D167DFE14CBD04319C27D16FA
:103E60007DFE54CBD04319C27D167DFE14CBD043CA
:103E700019C27D167DFE54CBD04319C27D167DFE3E
:103E800014CBD84319C37D177DFF371701407D46FA
:103E900013070780094893761500F1C60CCB232A37
:103EA0000701D44399C2FD16FDFE23280701D44320
:103EB00099C2FD16FDFE7D16058171FE03C6B70190
:103EC00083C6A70185450589918E13060008638B7B
:103ED000B60A41CD10CB371701401307078089453B
:103EE0004CCBD04319C27D167DFE0CCBD04319C2FA
:103EF0007D167DFEF916D043BDEA854614CB4CCB2A
:103F0000B28699C2FD16FDFE0CCBD84319C37D17AE
:103F10007DFF3717014013070780894654CBD043F4
:103F200019C27D167DFE14CBD04319C27D167DFECD
:103F3000054650CB54CBD04319C27D167DFE14CB21
:103F4000DC4399C3FD17FDFF930700081CCB82805B
:103F500054CB19C27D167DFE14CBD04319C27D16F9
:103F60007DFEFD15C5B54CCB1DBF50CBADB74CCBC1
:103F700019C27D167DFE0CCBD04319C27D167DFE85
:103F8000FD1695BF14CB11CD10CB37170140130789
:103F90000780094650CBD44399C2FD16FDFE10CBD5
:103FA000ADB750CBDDB7938701653717014083C5A7
:103FB0001700130707800546894610CB54CBFDC177
:103FC00014CB54CB14CB50CB54CB14CB54CB14CBFD
:103FD0001306000810CB03C6B701930586008605BB
:103FE000BE9583D54501B5ED3387C7008346C7012C
:103FF0003717014005431307078013080008894855
:104000009375150063936606410606063E960356B1
:104010004601B7170140938707801307000825CA98
:10402000B5C198CBB7170140938707800947D8CB14
:1040300098CB9306000894CB7D1639E6854694CB41
:10404000D8CB98CBB7170140938707800947D8CBC7
:1040500098CB8546D4CBD8CB98CB1307000898CB08
:10406000828054CB14CBFD15BDBF91C92328070115
:10407000232A1701232817010581FD1651B7232A8A
:104080000701FDB7D8CB79BFD8CB98CB75B794CB08
:1040900081C998CBB71701409387078009474DB76F
:1040A000D8CBCDBFCC4399C1FD15FDFD14CBCC437E
:1040B00099C1FD15FDFD54CBCC4399C1FD15FDFD06
:1040C00014CBCC4399C1FD15FDFD50CB54CBD0434F
:1040D00019C27D167DFE14CBD04319C27D167DFE1C
:1040E00054CBD04319C27D167DFE14CBD04319C2E8
:1040F0007D167DFE1306000810CB03C6B70121060E
:1041000006063E9683554601F1E103C7B701054314
:10411000930500083E970346C70137170140130770
:104120000780894813781500631E660A03C7B70124
:1041300093060008410706073E9783554701371746
:10414000014013070780F9CD6302080C14CB371721
:10415000014013070780094650CBD44399C2FD168E
:10416000FDFE10CBD44399C2FD16FDFE9306000858
:1041700014CBFD15D443C9ED85450CCB50CB99C26A
:10418000FD16FDFE10CBD84319C37D177DFF3717F1
:10419000014013070780894654CBD04319C27D16CE
:1041A0007DFE14CBD04319C27D167DFE054650CB53
:1041B00054CBD04319C27D167DFE14CBDC4399C38A
:1041C000FD17FDFF930700081CCB8280D04354CB22
:1041D00019C27D167DFE14CBD04319C27D167DFE1B
:1041E000FD151DB7630208020CCB232A1701D44327
:1041F00099C2FD16FDFE23281701D44399C2FD166E
:10420000FDFE05817D1639BF4CCBC5B754CB81B7B8
:1042100050CB99C2FD16FDFE10CBD44399C2FD16BA
:10422000FDFE81BF10CB630B080014CB3717014094
:1042300013070780094650CBD44391B754CBFDB741
:10424000938701653717014003C8170013070780DC
:104250000546894610CB54CB6300082014CB50CBC5
:1042600054CB14CB54CB14CB03CEB7017283631E53
:10427000030A937E250093060008638C0E0A14CB74
:104280003717014013070780094650CB8328870062
:104290009376450010CB93D85800B3F8C8001308A4
:1042A0000008D1CA2328070150CB144710CB13763E
:1042B00085009982858A1308000849C223280701CE
:1042C00037170140130707800948232A07011047C1
:1042D000232807011182118A33661601D18E054603
:1042E0006381C60610CB232A07012328070137174D
:1042F000014013070780094650CB10CB85454CCBB6
:1043000050CB10CB1306000810CB718D19C123A41C
:10431000070003C7C700B717014093870780094606
:104320006318071213F5F60F828054CB14CB7D135C
:104330003DBF54CBB1B7232A0701BDB7232A0701DC
:1043400041B763820E08FD48232A07011047FD1874
:104350002328070119827E06336666001353160070
:10436000E39408FE83C8A7010546B388C841638467
:10437000C804232A070110472328070137170140E3
:104380001982058AF918130707800948639F0800F6
:10439000854823281701232A070123280701A1D9CB
:1043A0007E063366660090C199B7232A0701232849
:1043B0000701FD18E1BF23281701232A0701104731
:1043C0001982058AD9BF8C417D469308000813F3F2
:1043D00015006306030423281701232A0701232855
:1043E00007017D16858165F603C6A7018548858985
:1043F0003306C64113080008630D160385C523283C
:104400000701371701401307078089454CCB0CCBB8
:10441000791601EE054610CB4CCB0CCBC9BD232A37
:10442000170165BF232A0701E9BF4CCB0CCB7D16D2
:10443000CDB710CB99C923280701371701401307BF
:104440000780094650CB10CB5DB5232A0701F5B78D
:10445000D0CB7D1790CBE9B503A8470063050800D2
:104460007D18E31F08FE14CB03A84700630508006E
:104470007D18E31F08FE50CB54CBD04319C27D16E4
:104480007DFE14CBD04319C27D167DFE54CBD043A4
:1044900019C27D167DFE14CBD04319C27D167DFE58
:1044A00003C3B701D0436318030C937E2500930622
:1044B0000008638D0E0C14CB3717014013070780DB
:1044C0000948232A0701B28699C2FD16FDFE8328FA
:1044D000870023280701D44399C2FD16FDFE93D817
:1044E000580093764500B3F8080113060008CDC2C2
:1044F00010CB232A0701D44399C2FD16FDFE1447B1
:1045000023280701D0439982858A19C27D167DFE32
:10451000137685001308000835CE232807013717C6
:104520000140130707800948232A0701D04319C215
:104530007D167DFE10472328070103AE4700630563
:104540000E007D1EE31F0EFE1182118A33661601D6
:10455000D18E854863831605D04323281701232A6B
:10456000070119C27D167DFE23280701D84319C310
:104570007D177DFFE1A054CB19C27D167DFE14CBC3
:10458000D04319C27D167DFE7D1329BF54CB2DB7B4
:1045900050CB85B7232A070159B763820E147D4E8D
:1045A000232A0701D04319C27D167DFE1047232818
:1045B000070183A8470063850800FD18E39F08FEF4
:1045C00019827E06336666007D1E13531600E319BA
:1045D0000EFC03C6B70183C8A701054EB388C840C7
:1045E000D0436381C80F232A070119C27D167DFEBF
:1045F000104723280701D84319823376C60119C30F
:104600007D177DFF37180140F91813080880094EFF
:10461000D843639C0808854823281801232AC80129
:1046200019C37D177DFF2328C801D84319C37D17FF
:104630007DFF89C57E063366660090C1371701404D
:1046400013070780094650CBCC4399C1FD15FDFDEA
:1046500010CBCC4399C1FD15FDFD85454CCB50CB0E
:10466000CC4399C1FD15FDFD10CBD04319C27D1679
:104670007DFE1306000810CB718D19C123A407001D
:1046800083C5C70037170140130707800945E38B2F
:1046900005C848CBD043FD1519C27D167DFE08CB59
:1046A000D04319C27D167DFEDDB7232AC80119C388
:1046B0007D177DFF2328C801D84319C37D177DFFCF
:1046C000FD18B9B723281701232A070119C27D163F
:1046D0007DFE1047232807011982058AB9B78C414E
:1046E000FD481303000813F6150025CE23286700A4
:1046F000232A0701D04319C27D167DFE2328070116
:10470000D04319C27D167DFEFD188581E39D08FC0E
:1047100003C8B70103C6A70185488589330606414A
:104720001308000863021607A1C1232807013717E1
:104730000140130707800948232A0701CC4399C188
:10474000FD15FDFD23280701CC4399C1FD15FDFD95
:104750007916CC4309EE054610CB232A07012E8695
:1047600009B5232A670069B7232A0701C9B7232A95
:10477000070199C1FD15FDFD23280701CC4399C10F
:10478000FD15FDFD7D16F1B710CB99CD232807014E
:10479000371701401307078089454CCBD04319C216
:1047A0007D167DFE0CCBD9B3232A0701D5B7B717E9
:1047B0000140814601479387078085480943138656
:1047C000016511E182807D1589E603C70500A146D8
:1047D0008505137817006309080223A8170123AA87
:1047E000670003284600630508007D18E31F08FEE4
:1047F00023A8670003284600630508007D18E31F0F
:1048000008FE0583FD1675BF23AA1701C9BF93775C
:10481000F50399E393070004137505089386016572
:1048200029C9B715014093850580094321480147EF
:1048300023AA6500C84219C17D157DFD884523A8BE
:10484000650083A8460063850800FD18E39F08FE05
:104850001E0505831375F50F7D18498FFD1763033A
:104860000800F9F7050633570701A30FE6FEDDFF41
:104870008280371601400548B708020013060680FB
:10488000094303C50500138E87FF1347F5FF120781
:10489000418B3317E8003367170118CAD84219C390
:1048A0007D177DFF23286600D84219C37D177DFF41
:1048B000FD176305FE000581E9FB82808505F1F3A4
:1048C000828093571500135625009348F6FF3E96B5
:1048D000935635002A96369613C3F7FF13C8F6FF92
:1048E000134EF5FF1346F6FF120E1203920812083C
:1048F0001206854E137E0E011373030193F808010F
:1049000013780801418A37070200339ECE013393A2
:104910006E00B3981E0133980E013396CE00336EAD
:10492000EE003363E300B3E8E8003368E800598E33
:104930001387016583461700B7170140370F020040
:1049400093870780769F23A8E701638306768946CD
:1049500094CB23A8C70194CB23A8670094CB23A8AA
:10496000170194CB23A8070194CB90CB94CB3706A7
:10497000030090CB94CB23A8E70194CB23A8D701C5
:104980009043419A1366860090C30348870142868C
:10499000D4CB6311063A03A3870094CBD4CB9047C2
:1049A00094CBD4CB83A887000606098A8A0893F89B
:1049B000480033661601937813003366160194CBD2
:1049C0008548631A16659378250063980836B717EB
:1049D0000140938707808946631F0860854E23AA9C
:1049E000D7019443B7080300C19A93E6360094C3F5
:1049F000944113D306013343D300935583003343CB
:104A0000B300935543003343B3009395F60113D895
:104A1000F541C165F695139FE6013378B800334838
:104A20001801135FFF4123A80701337FBF00094826
:104A300023A80701334F1F0123A8E701139FD601C5
:104A4000135FFF41337FBF0023A80701334F1F01CE
:104A500023A8E701139FC601135FFF41337FBF0007
:104A600023A80701334F1F0123A8E701139FB601B5
:104A7000135FFF41337FBF0023A80701334F1F019E
:104A800023A8E701139FA601135FFF41337FBF00F7
:104A900023A80701334F1F0123A8E701139F9601A5
:104AA000135FFF41337FBF0023A80701334F1F016E
:104AB00023A8E701139F8601135FFF41337FBF00E7
:104AC00023A80701334F1F0123A8E701139F760195
:104AD000135FFF41337FBF0023A80701334F1F013E
:104AE00023A8E701139F6601135FFF41337FBF00D7
:104AF00023A80701334F1F0123A8E701139F560185
:104B0000135FFF41337FBF0023A80701334F1F010D
:104B100023A8E701139F4601135FFF41337FBF00C6
:104B200023A80701334F1F0123A8E701139F360174
:104B3000135FFF41337FBF0023A80701334F1F01DD
:104B400023A8E701139F2601135FFF41337FBF00B6
:104B500023A80701334F1F0123A8E701139F160164
:104B6000135FFF41337FBF00334F1F0123A80701AD
:104B700023A8E701139F0601135FFF41337FBF00A6
:104B800023A80701334F1F0123A8E701139FF60055
:104B9000135FFF41337FBF0023A80701334F1F017D
:104BA00023A8E701139FE600135FFF41337FBF0097
:104BB00023A80701334F1F0123A8E701139FD60045
:104BC000135FFF41337FBF0023A80701334F1F014D
:104BD00023A8E701139FC600135FFF41337FBF0087
:104BE00023A80701334F1F0123A8E701139FB60035
:104BF000135FFF41337FBF0023A80701334F1F011D
:104C000023A8E701139FA600135FFF41337FBF0076
:104C100023A80701334F1F0123A8E701139F960024
:104C2000135FFF41337FBF0023A80701334F1F01EC
:104C300023A8E701139F8600135FFF41139E7600B0
:104C4000337FBF0023A80701334F1F01135EFE41CE
:104C500023A8E701337EBE0023A80701334E1E01BF
:104C600023A8C701139E6600135EFE41337EBE007B
:104C700023A80701334E1E0123A8C701139E560027
:104C8000135EFE41337EBE0023A80701334E1E0192
:104C900023A8C701139E4600135EFE41337EBE006B
:104CA00023A80701334E1E0123A8C701139E360017
:104CB000135EFE41337EBE0023A80701334E1E0162
:104CC00023A8C701139E2600135EFE41337EBE005B
:104CD00023A80701334E1E0123A8C701139E160007
:104CE000135EFE41337EBE00FD8623A80701334ECE
:104CF0001E01ED8EB3C6160123A8C70123A8070124
:104D000094CB9D661373F30093866699B3D66600C1
:104D1000B3F6D601920693C60601B39EDE00B7062F
:104D2000020023A80701B3EEDE0023A8D70123A8C1
:104D3000070169AC94CB7D16A1B9D4CB83A88700B9
:104D400094CBD4CB03A38700FE0894CBD4CB7E03B3
:104D500093D81800B3E8680003A3870094CBD4CBA2
:104D60007E0393D81800B368130103A3870094CB84
:104D7000D4CB93D818007E033363130183A8870034
:104D800094CBD4CB13531300FE08B3E8680003A3FD
:104D9000870094CBD4CB93D818007E0333631301E0
:104DA00083A8870094CBD4CB13531300FE08B3E839
:104DB000680003A3870094CBD4CB93D818007E035C
:104DC0003363130183A8870094CBD4CB1353130010
:104DD000FE08B3E8680003A3870094CBD4CB93D834
:104DE00018007E033363130183A887001353130055
:104DF00094CBFE08D4CBB3E8680003A3870094CB20
:104E0000D4CB93D818007E033363130183A88700A3
:104E100094CBD4CB13531300FE08B3E8680003A36C
:104E2000870094CBD4CB93D818007E03336313014F
:104E300083A8870094CBD4CB13531300FE08B3E8A8
:104E4000680003A3870094CBD4CB93D818007E03CB
:104E50003363130183A8870094CBD4CB135313007F
:104E6000FE08B3E8680003A3870094CBD4CB93D8A3
:104E700018007E033363130183A8870094CBD4CB3F
:104E800013531300FE08B3E8680003A3870094CB14
:104E9000D4CB93D818007E033363130183A8870013
:104EA00094CBD4CB13531300FE08B3E8680003A3DC
:104EB000870093D8180094CB7E03D4CB33631301BF
:104EC00083A8870094CBD4CB13531300FE08B3E818
:104ED000680003A3870094CBD4CB93D818007E033B
:104EE0003363130183A8870094CBD4CB13531300EF
:104EF000FE08B3E8680003A3870094CBD4CB93D813
:104F000018007E033363130183A8870094CBD4CBAE
:104F100013531300FE08B3E8680003A3870094CB83
:104F2000D4CB93D818007E033363130183A8870082
:104F300094CBD4CB13531300FE08B3E8680003A34B
:104F4000870094CBD4CB93D818007E03336313012E
:104F500083A8870094CBD4CB13531300FE08B3E887
:104F6000680003A3870093D8180094CB7E033363B3
:104F7000130193580301B3C8680013DE8800B3C857
:104F8000C801D4CB13DE4800B3C8C80103AE870004
:104F900094CB9D6793F8F80093876799B3D717016F
:104FA000B3C7C701858B91C3214699C123A0650072
:104FB000B7170140938707808946631A0802854620
:104FC000D4CB9443C19A93E6360094C31375050875
:104FD00019C1232407000347C70015E3B717014091
:104FE00093870780054798CB1375F60F8280D4CB43
:104FF00094CB7D18D9B7D4CB94CB7D18F1BAB71721
:105000000140854693870780D4CB8946D4CB94CB87
:105010007D176DFFE1B79307E6FFF59B95C7B717BF
:1050200001409387078009479306F0FDD8CB98CBC2
:105030007D18E31DD8FE8546D4CB9843419B13676A
:10504000370098C394CB4DB7834597019DEDB717B3
:105050000140938707800947631808048546D4CB2D
:105060009843419B1367370098C3ADD909893DF533
:10507000D4CBB717014013071002938707808946E6
:10508000D4CB94CB7D176DFF91BF93772500E1D3EF
:10509000B717014013071002938707808946D4CBC6
:1050A00094CB7D176DFF65B7D8CB98CB7D186DB7C6
:1050B000544399C2FD16FDFE894694CB832F4700C9
:1050C00063850F00FD1FE39F0FFE23A8C701032E7A
:1050D000470063050E007D1EE31F0EFE94CB032EDA
:1050E000470063050E007D1EE31F0EFE23A8670028
:1050F00003234700630503007D13E31F03FE94CBE6
:1051000003234700630503007D13E31F03FE23A869
:1051100017018328470063850800FD18E39F08FEF8
:1051200094CB8328470063850800FD18E39F08FEA1
:1051300023A8070103284700630508007D18E31F23
:1051400008FE94CB03284700630508007D18E31F81
:1051500008FE90CB504319C27D167DFE94CB504380
:1051600019C27D167DFE3706030090CB504319C24D
:105170007D167DFE94CB504319C27D167DFE23A87B
:10518000E701504319C27D167DFE94CB504319C2EE
:105190007D167DFE23A8D7019043419A13668600B1
:1051A00090C3034887015043D4CB6312086E19C2E1
:1051B0007D167DFE03A3870094CB504319C27D1654
:1051C0007DFED4CB504319C27D167DFE904794CB13
:1051D00003284700630508007D18E31F08FED4CBB1
:1051E00003284700630508007D18E31F08FE03A895
:1051F000870094CB8328470063850800FD18E39F50
:1052000008FE06060A0813784800098A3366060174
:1052100013781300336606010548E318065B13781C
:105220002500630E086803284700D4CB63050800F7
:105230007D18E31F08FE03A8870094CB832847004E
:1052400063850800FD18E39F08FED4CB8328470040
:1052500063850800FD18E39F08FE03A3870094CB35
:105260008328470063850800FD18E39F08FED4CB20
:105270008328470063850800FD18E39F08FE7E0829
:105280009318F301135818003368180183A8870096
:1052900094CB0323470013581800630503007D13C4
:1052A000E31F03FED4CB03234700630503007D13F4
:1052B000E31F03FEFE0833E8080183A8870094CBB0
:1052C0000323470013581800630503007D13E31FF1
:1052D00003FED4CB03234700630503007D13E31FC4
:1052E00003FEFE08B3E8080103A8870094CB03235C
:1052F000470093D81800630503007D13E31F03FEE6
:10530000D4CB03234700630503007D13E31F03FE93
:105310007E083368180183A8870094CB03234700D5
:1053200013581800630503007D13E31F03FED4CB5D
:1053300003234700630503007D13E31F03FEFE08FC
:10534000B3E8080103A8870094CB0323470093D850
:105350001800630503007D13E31F03FED4CB032372
:105360004700630503007D13E31F03FE7E083368D7
:10537000180183A8870094CB032347001358180013
:10538000630503007D13E31F03FED4CB0323470013
:10539000630503007D13E31F03FEFE08B3E8080165
:1053A00003A8870094CB0323470093D81800630514
:1053B00003007D13E31F03FED4CB032347006305E3
:1053C00003007D13E31F03FE7E083368180183A8E2
:1053D000870094CB0323470013581800630503008C
:1053E0007D13E31F03FED4CB0323470063050300B3
:1053F0007D13E31F03FEFE08B3E8080103A887003E
:1054000094CB0323470093D81800630503007D1352
:10541000E31F03FED4CB03234700630503007D1382
:10542000E31F03FE7E083368180183A8870094CB2E
:105430000323470013581800630503007D13E31F7F
:1054400003FED4CB03234700630503007D13E31F52
:1054500003FEFE08B3E8080103A8870094CB0323EA
:10546000470093D81800630503007D13E31F03FE74
:10547000D4CB03234700630503007D13E31F03FE22
:105480007E083368180183A8870094CB0323470064
:1054900013581800630503007D13E31F03FED4CBEC
:1054A00003234700630503007D13E31F03FEFE088B
:1054B000B3E8080103A8870094CB0323470093D8DF
:1054C0001800630503007D13E31F03FED4CB032301
:1054D0004700630503007D13E31F03FE7E08336866
:1054E000180183A8870094CB0323470013581800A2
:1054F000630503007D13E31F03FED4CB03234700A2
:10550000630503007D13E31F03FEFE08B3E80801F3
:1055100003A8870094CB0323470093D818006305A2
:1055200003007D13E31F03FED4CB03234700630571
:1055300003007D13E31F03FE7E083368180183A870
:10554000870094CB0323470013581800630503001A
:105550007D13E31F03FED4CB032347006305030041
:105560007D13E31F03FEFE08B3E8080103A88700CC
:1055700094CB0323470093D81800630503007D13E1
:10558000E31F03FED4CB03234700630503007D1311
:10559000E31F03FE7E083368180183A8870094CBBD
:1055A0000323470013581800630503007D13E31F0E
:1055B00003FED4CB03234700630503007D13E31FE1
:1055C00003FEFE08B3E8080103A8870094CB032379
:1055D000470093D81800630503007D13E31F03FE03
:1055E000D4CB03234700630503007D13E31F03FEB1
:1055F0007E083368180183A8870094CB03234700F3
:1056000013581800630503007D13E31F03FED4CB7A
:1056100003234700630503007D13E31F03FEFE0819
:10562000B3E8080103A8870094CB0323470093D86D
:105630001800630503007D13E31F03FED4CB03238F
:105640004700630503007D13E31F03FE7E083368F4
:10565000180183A8870094CB032347001358180030
:10566000630503007D13E31F03FED4CB0323470030
:10567000630503007D13E31F03FEFE08B3E8080182
:1056800003A8870094CB0323470093D81800630531
:1056900003007D13E31F03FED4CB03234700630500
:1056A00003007D13E31F03FE7E083368180183A8FF
:1056B000870094CB032347001358180063050300A9
:1056C0007D13E31F03FED4CB0323470063050300D0
:1056D0007D13E31F03FEFE08B3E8080103A887005B
:1056E00094CB0323470093D81800630503007D1370
:1056F000E31F03FED4CB03234700630503007D13A0
:10570000E31F03FE7E083368180183A8870094CB4B
:105710000323470013581800630503007D13E31F9C
:1057200003FED4CB03234700630503007D13E31F6F
:1057300003FEFE08B3E8080103A8870094CB032307
:10574000470093D81800630503007D13E31F03FE91
:10575000D4CB03234700630503007D13E31F03FE3F
:105760007E083368180183A8870094CB0323470081
:1057700013581800630503007D13E31F03FED4CB09
:1057800003234700630503007D13E31F03FEFE08A8
:10579000B3E8080103A8870094CB0323470093D8FC
:1057A0001800630503007D13E31F03FED4CB03231E
:1057B0004700630503007D13E31F03FE7E08336883
:1057C000180183A887001358180094CBFE08B3E88B
:1057D000080103284700630508007D18E31F08FE41
:1057E00013D8080133481801135388003348680060
:1057F00013534800D4CB33486800032347006305A4
:1058000003007D13E31F03FE03A3870094CB5C43D7
:1058100099C3FD17FDFF9D671378F800938767997B
:10582000B3D70701B3C76700F18F91C3214699C170
:1058300023A0150183458701B7170140938707808F
:105840000948A5E18546D4CB9443C19A93E6360036
:1058500094C31375050819C1232407008346C700A4
:10586000638E06F6B7170140938707808545CCCB3A
:105870000945C8CB4C4399C1FD15FDFD88CB4C4370
:1058800099C1FD15FDFDFD16EDF66FF02FF519C25E
:105890007D167DFE94CB504319C27D167DFE7D188A
:1058A00019B223AA0701544399C2FD16FDFE23A88D
:1058B0000701544399C2FD16FDFEFD1559B78348F3
:1058C0008701B717014093870780094303284700E2
:1058D000639E086C854E23AAD7019443B708030042
:1058E000C19A93E6360094C3944113D3060133431F
:1058F000D300935583003343B300935543003343A0
:10590000B3009395F60113DFF541C165F695337F3A
:10591000BF00334F1F01139E760023A8E7016305E4
:1059200008007D18E31F08FE094823A80701032F7C
:10593000470063050F007D1FE31F0FFE139FE60165
:10594000135FFF41337FBF00334F1F0123A8E701DF
:10595000032F470063050F007D1FE31F0FFE23A8E1
:105960000701032F470063050F007D1FE31F0FFE94
:10597000139FD601135FFF41337FBF00334F1F01D9
:1059800023A8E701032F470063050F007D1FE31FD6
:105990000FFE23A80701032F470063050F007D1F9B
:1059A000E31F0FFE139FC601135FFF41337FBF004C
:1059B000334F1F0123A8E701032F470063050F00A2
:1059C0007D1FE31F0FFE23A80701032F4700630578
:1059D0000F007D1FE31F0FFE139FB601135FFF41F2
:1059E000337FBF00334F1F0123A8E701032F470078
:1059F00063050F007D1FE31F0FFE23A80701032F80
:105A0000470063050F007D1FE31F0FFE139FA601D4
:105A1000135FFF41337FBF00334F1F0123A8E7010E
:105A2000032F470063050F007D1FE31F0FFE23A810
:105A30000701032F470063050F007D1FE31F0FFEC3
:105A4000139F9601135FFF41337FBF00334F1F0148
:105A500023A8E701032F470063050F007D1FE31F05
:105A60000FFE23A80701032F470063050F007D1FCA
:105A7000E31F0FFE139F8601135FFF41337FBF00BB
:105A8000334F1F0123A8E701032F470063050F00D1
:105A90007D1FE31F0FFE23A80701032F47006305A7
:105AA0000F007D1FE31F0FFE139F7601135FFF4161
:105AB000337FBF00334F1F0123A8E701032F4700A7
:105AC00063050F007D1FE31F0FFE23A80701032FAF
:105AD000470063050F007D1FE31F0FFE139F660144
